{
  "contractName": "ConvertLib",
  "abi": [
    {
      "inputs": [
        {
          "internalType": "uint256",
          "name": "amount",
          "type": "uint256"
        },
        {
          "internalType": "uint256",
          "name": "conversionRate",
          "type": "uint256"
        }
      ],
      "name": "convert",
      "outputs": [
        {
          "internalType": "uint256",
          "name": "convertedAmount",
          "type": "uint256"
        }
      ],
      "stateMutability": "pure",
      "type": "function"
    },
    {
      "inputs": [
        {
          "internalType": "uint256",
          "name": "amount",
          "type": "uint256"
        },
        {
          "internalType": "uint256",
          "name": "ratingLoanPerETH",
          "type": "uint256"
        }
      ],
      "name": "convertToETHRequireLending",
      "outputs": [
        {
          "internalType": "uint256",
          "name": "convertedAmount",
          "type": "uint256"
        }
      ],
      "stateMutability": "pure",
      "type": "function"
    },
    {
      "inputs": [
        {
          "internalType": "uint256",
          "name": "amountETH",
          "type": "uint256"
        }
      ],
      "name": "convertETHToWei",
      "outputs": [
        {
          "internalType": "uint256",
          "name": "convertedAmount",
          "type": "uint256"
        }
      ],
      "stateMutability": "pure",
      "type": "function"
    },
    {
      "inputs": [
        {
          "internalType": "uint256",
          "name": "amountETH",
          "type": "uint256"
        }
      ],
      "name": "convertWeiToETH",
      "outputs": [
        {
          "internalType": "uint256",
          "name": "convertedAmount",
          "type": "uint256"
        }
      ],
      "stateMutability": "pure",
      "type": "function"
    },
    {
      "inputs": [
        {
          "internalType": "uint256",
          "name": "amountXCoin",
          "type": "uint256"
        }
      ],
      "name": "convertXCoinToWei",
      "outputs": [
        {
          "internalType": "uint256",
          "name": "convertedAmount",
          "type": "uint256"
        }
      ],
      "stateMutability": "pure",
      "type": "function"
    },
    {
      "inputs": [
        {
          "internalType": "uint256",
          "name": "amountXCoin",
          "type": "uint256"
        }
      ],
      "name": "convertWeiToXCoin",
      "outputs": [
        {
          "internalType": "uint256",
          "name": "convertedAmount",
          "type": "uint256"
        }
      ],
      "stateMutability": "pure",
      "type": "function"
    }
  ],
  "bytecode": "0x61065d610053600b82828239805160001a607314610046577f4e487b7100000000000000000000000000000000000000000000000000000000600052600060045260246000fd5b30600052607381538281f3fe730000000000000000000000000000000000000000301460806040526004361061006c5760003560e01c806338a1e544146100715780638650e2ac146100a1578063939a797b146100d157806396e4ee3d14610101578063d487733414610131578063d85ac8ac14610161575b600080fd5b61008b60048036038101906100869190610359565b610191565b6040516100989190610453565b60405180910390f35b6100bb60048036038101906100b69190610382565b6101f0565b6040516100c89190610453565b60405180910390f35b6100eb60048036038101906100e69190610359565b610213565b6040516100f89190610453565b60405180910390f35b61011b60048036038101906101169190610382565b610271565b6040516101289190610453565b60405180910390f35b61014b60048036038101906101469190610359565b610287565b6040516101589190610453565b60405180910390f35b61017b60048036038101906101769190610359565b6102e6565b6040516101889190610453565b60405180910390f35b60008082116101d5576040517f08c379a00000000000000000000000000000000000000000000000000000000081526004016101cc90610413565b60405180910390fd5b670de0b6b3a7640000826101e991906104b0565b9050919050565b6000806102078385610202919061047f565b610191565b90508091505092915050565b6000808211610257576040517f08c379a000000000000000000000000000000000000000000000000000000000815260040161024e90610433565b60405180910390fd5b662386f26fc100008261026a919061047f565b9050919050565b6000818361027f91906104b0565b905092915050565b60008082116102cb576040517f08c379a00000000000000000000000000000000000000000000000000000000081526004016102c290610413565b60405180910390fd5b670de0b6b3a7640000826102df919061047f565b9050919050565b600080821161032a576040517f08c379a000000000000000000000000000000000000000000000000000000000815260040161032190610433565b60405180910390fd5b662386f26fc100008261033d91906104b0565b9050919050565b60008135905061035381610610565b92915050565b60006020828403121561036b57600080fd5b600061037984828501610344565b91505092915050565b6000806040838503121561039557600080fd5b60006103a385828601610344565b92505060206103b485828601610344565b9150509250929050565b60006103cb60238361046e565b91506103d682610572565b604082019050919050565b60006103ee60218361046e565b91506103f9826105c1565b604082019050919050565b61040d8161050a565b82525050565b6000602082019050818103600083015261042c816103be565b9050919050565b6000602082019050818103600083015261044c816103e1565b9050919050565b60006020820190506104686000830184610404565b92915050565b600082825260208201905092915050565b600061048a8261050a565b91506104958361050a565b9250826104a5576104a4610543565b5b828204905092915050565b60006104bb8261050a565b91506104c68361050a565b9250817fffffffffffffffffffffffffffffffffffffffffffffffffffffffffffffffff04831182151516156104ff576104fe610514565b5b828202905092915050565b6000819050919050565b7f4e487b7100000000000000000000000000000000000000000000000000000000600052601160045260246000fd5b7f4e487b7100000000000000000000000000000000000000000000000000000000600052601260045260246000fd5b7f416d6f756e742045544820636f696e2072657175697265206d6f72652074686160008201527f6e20300000000000000000000000000000000000000000000000000000000000602082015250565b7f416d6f756e74205820636f696e2072657175697265206d6f7265207468616e2060008201527f3000000000000000000000000000000000000000000000000000000000000000602082015250565b6106198161050a565b811461062457600080fd5b5056fea264697066735822122089c236c7483529b64f610a461e7cf4183c7f0681286b03474c3cbefc1c9af55364736f6c63430008010033",
  "immutableReferences": {},
  "source": "// SPDX-License-Identifier: MIT\npragma solidity >= 0.7.0 <= 0.8.1;\n\nlibrary ConvertLib {\n\n\n    // 1 eth = 1.000.000.000 Gwei = 1.000.000.000.000.000.000 (1e18) wei\n    // 1 eth = 100 XCoin => 1 XCoin = 10.000.000 Gwei =10.000.000.000.000.000 (1e16) wei\n    function convert(uint amount, uint conversionRate) public pure returns (uint convertedAmount)\n    {\n        return amount * conversionRate;\n    }\n\n    function convertToETHRequireLending(uint amount, uint ratingLoanPerETH) public pure returns (uint convertedAmount)\n    {\n        // Sum XCoin = 2000 => ?ETH\n        // rate 1000XCoin = 1ETH\n\n        // 2000 :\n        //1000 : 1\n        uint ethRequire = convertETHToWei((amount / ratingLoanPerETH));\n        return ethRequire;\n    }\n\n\n    function convertETHToWei(uint amountETH) public pure returns (uint convertedAmount)\n    {\n        require(amountETH > 0, \"Amount ETH coin require more than 0\");\n        return amountETH * 10 ** 18;\n    }\n\n    function convertWeiToETH(uint amountETH) public pure returns (uint convertedAmount)\n    {\n        require(amountETH > 0, \"Amount ETH coin require more than 0\");\n        return amountETH / (10 ** 18);\n    }\n\n\n    function convertXCoinToWei(uint amountXCoin) public pure returns (uint convertedAmount) {\n        require(amountXCoin > 0, \"Amount X coin require more than 0\");\n        return amountXCoin * 10 ** 16;\n\n    }\n\n    function convertWeiToXCoin(uint amountXCoin) public pure returns (uint convertedAmount) {\n        require(amountXCoin > 0, \"Amount X coin require more than 0\");\n        return amountXCoin / (10 ** 16);\n\n    }\n\n\n\n\n}\n",
  "sourcePath": "/Users/ndtrung/work/block_chain/XCoin/contracts/libs/ConvertLib.sol",
  "compiler": {
    "name": "solc",
    "version": "0.8.1+commit.df193b15.Emscripten.clang"
  },
  "schemaVersion": "3.3.4",
  "updatedAt": "2021-04-11T08:46:38.802Z",
  "devdoc": {
    "kind": "dev",
    "methods": {},
    "version": 1
  },
  "userdoc": {
    "kind": "user",
    "methods": {},
    "version": 1
  }
}