{
  "contractName": "LoanContract",
  "abi": [
    {
      "anonymous": false,
      "inputs": [
        {
          "indexed": false,
          "internalType": "uint256",
          "name": "timestamp",
          "type": "uint256"
        }
      ],
      "name": "BorrowingSuccess",
      "type": "event"
    },
    {
      "anonymous": false,
      "inputs": [
        {
          "indexed": false,
          "internalType": "uint256",
          "name": "lendingId",
          "type": "uint256"
        }
      ],
      "name": "CreateLendingOfferSuccess",
      "type": "event"
    },
    {
      "anonymous": false,
      "inputs": [
        {
          "indexed": false,
          "internalType": "uint256",
          "name": "timestamp",
          "type": "uint256"
        }
      ],
      "name": "RepaySuccess",
      "type": "event"
    },
    {
      "inputs": [
        {
          "internalType": "uint256",
          "name": "",
          "type": "uint256"
        }
      ],
      "name": "mappingLending",
      "outputs": [
        {
          "internalType": "address",
          "name": "addressBorrower",
          "type": "address"
        },
        {
          "internalType": "uint256",
          "name": "timestampStart",
          "type": "uint256"
        }
      ],
      "stateMutability": "view",
      "type": "function"
    },
    {
      "inputs": [
        {
          "internalType": "uint256",
          "name": "",
          "type": "uint256"
        }
      ],
      "name": "mappingLendingOffer",
      "outputs": [
        {
          "internalType": "uint256",
          "name": "lendingOfferId",
          "type": "uint256"
        },
        {
          "internalType": "uint256",
          "name": "amountXCoin",
          "type": "uint256"
        },
        {
          "internalType": "uint256",
          "name": "ethRequire",
          "type": "uint256"
        },
        {
          "internalType": "uint256",
          "name": "ratingLoanPerETH",
          "type": "uint256"
        },
        {
          "internalType": "uint256",
          "name": "durationSecond",
          "type": "uint256"
        },
        {
          "internalType": "uint256",
          "name": "durationDate",
          "type": "uint256"
        },
        {
          "internalType": "uint256",
          "name": "dailyInterest",
          "type": "uint256"
        },
        {
          "internalType": "address",
          "name": "addressLender",
          "type": "address"
        },
        {
          "internalType": "bool",
          "name": "isLending",
          "type": "bool"
        }
      ],
      "stateMutability": "view",
      "type": "function"
    },
    {
      "inputs": [],
      "name": "ratingFee",
      "outputs": [
        {
          "internalType": "uint256",
          "name": "",
          "type": "uint256"
        }
      ],
      "stateMutability": "view",
      "type": "function"
    },
    {
      "inputs": [],
      "name": "secondPerDay",
      "outputs": [
        {
          "internalType": "uint256",
          "name": "",
          "type": "uint256"
        }
      ],
      "stateMutability": "view",
      "type": "function"
    },
    {
      "inputs": [
        {
          "internalType": "address",
          "name": "_XCoinContractAddress",
          "type": "address"
        }
      ],
      "name": "setXCoinContractAddress",
      "outputs": [],
      "stateMutability": "nonpayable",
      "type": "function"
    },
    {
      "inputs": [
        {
          "internalType": "address",
          "name": "addressLender",
          "type": "address"
        },
        {
          "internalType": "uint256",
          "name": "amountLending",
          "type": "uint256"
        },
        {
          "internalType": "uint256",
          "name": "ratingLoan",
          "type": "uint256"
        },
        {
          "internalType": "uint256",
          "name": "durationDates",
          "type": "uint256"
        },
        {
          "internalType": "uint256",
          "name": "dailyInterest",
          "type": "uint256"
        }
      ],
      "name": "createLendingOffer",
      "outputs": [
        {
          "internalType": "uint256",
          "name": "",
          "type": "uint256"
        }
      ],
      "stateMutability": "nonpayable",
      "type": "function"
    },
    {
      "inputs": [
        {
          "internalType": "uint256",
          "name": "_lendingId",
          "type": "uint256"
        }
      ],
      "name": "borrowingXCoin",
      "outputs": [],
      "stateMutability": "payable",
      "type": "function"
    },
    {
      "inputs": [
        {
          "internalType": "uint256",
          "name": "_lendingIdToRepay",
          "type": "uint256"
        },
        {
          "internalType": "uint256",
          "name": "_amountRepay",
          "type": "uint256"
        }
      ],
      "name": "repayBorrowingXCoin",
      "outputs": [],
      "stateMutability": "nonpayable",
      "type": "function"
    },
    {
      "inputs": [
        {
          "internalType": "uint256",
          "name": "_IDLending",
          "type": "uint256"
        },
        {
          "internalType": "bool",
          "name": "isPayFee",
          "type": "bool"
        }
      ],
      "name": "getProfitLending",
      "outputs": [
        {
          "internalType": "uint256",
          "name": "",
          "type": "uint256"
        }
      ],
      "stateMutability": "view",
      "type": "function"
    }
  ],
  "bytecode": "0x60806040526000805534801561001457600080fd5b50611bd5806100246000396000f3fe6080604052600436106100865760003560e01c8063958c88c311610059578063958c88c31461016257806399edc3581461018d578063b837b410146101ca578063c41df529146101f3578063de15202b1461020f57610086565b80631db609ba1461008b578063264218b9146100c95780632d0377e6146100f457806357bdb8031461011d575b600080fd5b34801561009757600080fd5b506100b260048036038101906100ad91906112f7565b61024c565b6040516100c0929190611591565b60405180910390f35b3480156100d557600080fd5b506100de610290565b6040516100eb91906116d5565b60405180910390f35b34801561010057600080fd5b5061011b60048036038101906101169190611257565b610297565b005b34801561012957600080fd5b50610144600480360381019061013f91906112f7565b6102db565b60405161015999989796959493929190611719565b60405180910390f35b34801561016e57600080fd5b50610177610356565b60405161018491906116d5565b60405180910390f35b34801561019957600080fd5b506101b460048036038101906101af9190611349565b61035b565b6040516101c191906116d5565b60405180910390f35b3480156101d657600080fd5b506101f160048036038101906101ec9190611385565b610496565b005b61020d600480360381019061020891906112f7565b6108a4565b005b34801561021b57600080fd5b5061023660048036038101906102319190611280565b610cc8565b60405161024391906116d5565b60405180910390f35b60026020528060005260406000206000915090508060000160009054906101000a900473ffffffffffffffffffffffffffffffffffffffff16908060010154905082565b6201518081565b80600360006101000a81548173ffffffffffffffffffffffffffffffffffffffff021916908373ffffffffffffffffffffffffffffffffffffffff16021790555050565b60016020528060005260406000206000915090508060000154908060010154908060020154908060030154908060040154908060050154908060060154908060070160009054906101000a900473ffffffffffffffffffffffffffffffffffffffff16908060070160149054906101000a900460ff16905089565b600581565b6000806000429050600060646001600088815260200190815260200160002060010154600160008981526020019081526020016000206006015461039f919061183e565b6103a9919061180d565b90506000151585151514156103e1576001600087815260200190815260200160002060050154816103da919061183e565b925061048a565b6000806002600089815260200190815260200160002060010154846104069190611898565b905060006201518082610419919061195d565b90506000811415610445576201518081836104349190611898565b61043e919061180d565b9250610478565b60008111156104775760016201518082846104609190611898565b61046a919061180d565b61047491906117b7565b92505b5b8284610484919061183e565b95505050505b82935050505092915050565b6002600083815260200190815260200160002060000160009054906101000a900473ffffffffffffffffffffffffffffffffffffffff1673ffffffffffffffffffffffffffffffffffffffff163373ffffffffffffffffffffffffffffffffffffffff161461053a576040517f08c379a00000000000000000000000000000000000000000000000000000000081526004016105319061165a565b60405180910390fd5b61054382610fef565b73__ConvertLib____________________________63d85ac8ac836040518263ffffffff1660e01b815260040161057a91906116ba565b60206040518083038186803b15801561059257600080fd5b505af41580156105a6573d6000803e3d6000fd5b505050506040513d601f19601f820116820180604052508101906105ca9190611320565b1461060a576040517f08c379a0000000000000000000000000000000000000000000000000000000008152600401610601906115fa565b60405180910390fd5b600360009054906101000a900473ffffffffffffffffffffffffffffffffffffffff1673ffffffffffffffffffffffffffffffffffffffff166312bc6abe336001600086815260200190815260200160002060070160009054906101000a900473ffffffffffffffffffffffffffffffffffffffff1673__ConvertLib____________________________63d85ac8ac866040518263ffffffff1660e01b81526004016106b791906116ba565b60206040518083038186803b1580156106cf57600080fd5b505af41580156106e3573d6000803e3d6000fd5b505050506040513d601f19601f820116820180604052508101906107079190611320565b73__ConvertLib____________________________63d4877334600160008a8152602001908152602001600020600201546040518263ffffffff1660e01b815260040161075491906116ba565b60206040518083038186803b15801561076c57600080fd5b505af4158015610780573d6000803e3d6000fd5b505050506040513d601f19601f820116820180604052508101906107a49190611320565b6040518563ffffffff1660e01b81526004016107c3949392919061154c565b600060405180830381600087803b1580156107dd57600080fd5b505af11580156107f1573d6000803e3d6000fd5b5050505060006001600084815260200190815260200160002060070160146101000a81548160ff02191690831515021790555060026000838152602001908152602001600020600080820160006101000a81549073ffffffffffffffffffffffffffffffffffffffff0219169055600182016000905550507f6ab96b20b9d5d04678a06655cb619be89b45120541fc873981daf25838867cd04260405161089891906116d5565b60405180910390a15050565b600160008281526020019081526020016000206002015473__ConvertLib____________________________6338a1e544346040518263ffffffff1660e01b81526004016108f291906116ba565b60206040518083038186803b15801561090a57600080fd5b505af415801561091e573d6000803e3d6000fd5b505050506040513d601f19601f820116820180604052508101906109429190611320565b14610982576040517f08c379a00000000000000000000000000000000000000000000000000000000081526004016109799061161a565b60405180910390fd5b600015156001600083815260200190815260200160002060070160149054906101000a900460ff161515146109ec576040517f08c379a00000000000000000000000000000000000000000000000000000000081526004016109e39061167a565b60405180910390fd5b600180600083815260200190815260200160002060070160146101000a81548160ff02191690831515021790555060405180604001604052803373ffffffffffffffffffffffffffffffffffffffff168152602001428152506002600083815260200190815260200160002060008201518160000160006101000a81548173ffffffffffffffffffffffffffffffffffffffff021916908373ffffffffffffffffffffffffffffffffffffffff16021790555060208201518160010155905050600360009054906101000a900473ffffffffffffffffffffffffffffffffffffffff1673ffffffffffffffffffffffffffffffffffffffff166108fc73__ConvertLib____________________________63d487733460016000868152602001908152602001600020600201546040518263ffffffff1660e01b8152600401610b3591906116ba565b60206040518083038186803b158015610b4d57600080fd5b505af4158015610b61573d6000803e3d6000fd5b505050506040513d601f19601f82011682018060405250810190610b859190611320565b9081150290604051600060405180830381858888f19350505050158015610bb0573d6000803e3d6000fd5b50600360009054906101000a900473ffffffffffffffffffffffffffffffffffffffff1673ffffffffffffffffffffffffffffffffffffffff1663f527a66d336001600085815260200190815260200160002060070160009054906101000a900473ffffffffffffffffffffffffffffffffffffffff1660016000868152602001908152602001600020600101546040518463ffffffff1660e01b8152600401610c5c93929190611515565b600060405180830381600087803b158015610c7657600080fd5b505af1158015610c8a573d6000803e3d6000fd5b505050507f4e865753d79495859a3fd4f8f4bf6236f7228ed5ba12678fa2d5b67b506be63d42604051610cbd91906116d5565b60405180910390a150565b6000808511610d0c576040517f08c379a0000000000000000000000000000000000000000000000000000000008152600401610d03906115ba565b60405180910390fd5b60008411610d4f576040517f08c379a0000000000000000000000000000000000000000000000000000000008152600401610d46906115da565b60405180910390fd5b60008311610d92576040517f08c379a0000000000000000000000000000000000000000000000000000000008152600401610d899061163a565b60405180910390fd5b60008211610dd5576040517f08c379a0000000000000000000000000000000000000000000000000000000008152600401610dcc9061169a565b60405180910390fd5b600080815480929190610de790611914565b9190505550600073__ConvertLib____________________________638650e2ac87876040518363ffffffff1660e01b8152600401610e279291906116f0565b60206040518083038186803b158015610e3f57600080fd5b505af4158015610e53573d6000803e3d6000fd5b505050506040513d601f19601f82011682018060405250810190610e779190611320565b905060405180610120016040528060005481526020018781526020018281526020018681526020016201518086610eae919061183e565b81526020018581526020018481526020018873ffffffffffffffffffffffffffffffffffffffff168152602001600015158152506001600080548152602001908152602001600020600082015181600001556020820151816001015560408201518160020155606082015181600301556080820151816004015560a0820151816005015560c0820151816006015560e08201518160070160006101000a81548173ffffffffffffffffffffffffffffffffffffffff021916908373ffffffffffffffffffffffffffffffffffffffff1602179055506101008201518160070160146101000a81548160ff0219169083151502179055509050507fb1bfc2dfb14a2567c6835655fddc219311020971213fa0418c02a1886fd943f0600054604051610fd891906116d5565b60405180910390a160005491505095945050505050565b60008060009050600080600042905060016000878152602001908152602001600020600401546002600088815260200190815260200160002060010154826110379190611898565b10156110f9576001935073__ConvertLib____________________________63d85ac8ac6064600160008a8152602001908152602001600020600101546005611080919061183e565b61108a919061180d565b6040518263ffffffff1660e01b81526004016110a691906116ba565b60206040518083038186803b1580156110be57600080fd5b505af41580156110d2573d6000803e3d6000fd5b505050506040513d601f19601f820116820180604052508101906110f69190611320565b92505b60001515841515141561113857611110868561035b565b600160008881526020019081526020016000206001015461113191906117b7565b9150611171565b611142868561035b565b83600160008981526020019081526020016000206001015461116491906117b7565b61116e91906117b7565b91505b73__ConvertLib____________________________63d85ac8ac836040518263ffffffff1660e01b81526004016111a891906116ba565b60206040518083038186803b1580156111c057600080fd5b505af41580156111d4573d6000803e3d6000fd5b505050506040513d601f19601f820116820180604052508101906111f89190611320565b945050505050919050565b60008135905061121281611b5a565b92915050565b60008135905061122781611b71565b92915050565b60008135905061123c81611b88565b92915050565b60008151905061125181611b88565b92915050565b60006020828403121561126957600080fd5b600061127784828501611203565b91505092915050565b600080600080600060a0868803121561129857600080fd5b60006112a688828901611203565b95505060206112b78882890161122d565b94505060406112c88882890161122d565b93505060606112d98882890161122d565b92505060806112ea8882890161122d565b9150509295509295909350565b60006020828403121561130957600080fd5b60006113178482850161122d565b91505092915050565b60006020828403121561133257600080fd5b600061134084828501611242565b91505092915050565b6000806040838503121561135c57600080fd5b600061136a8582860161122d565b925050602061137b85828601611218565b9150509250929050565b6000806040838503121561139857600080fd5b60006113a68582860161122d565b92505060206113b78582860161122d565b9150509250929050565b6113ca816118cc565b82525050565b6113d9816118de565b82525050565b60006113ec602b836117a6565b91506113f7826119ec565b604082019050919050565b600061140f6017836117a6565b915061141a82611a3b565b602082019050919050565b6000611432601d836117a6565b915061143d82611a64565b602082019050919050565b6000611455601d836117a6565b915061146082611a8d565b602082019050919050565b60006114786019836117a6565b915061148382611ab6565b602082019050919050565b600061149b6017836117a6565b91506114a682611adf565b602082019050919050565b60006114be6019836117a6565b91506114c982611b08565b602082019050919050565b60006114e1601a836117a6565b91506114ec82611b31565b602082019050919050565b6115008161190a565b82525050565b61150f8161190a565b82525050565b600060608201905061152a60008301866113c1565b61153760208301856113c1565b61154460408301846114f7565b949350505050565b600060808201905061156160008301876113c1565b61156e60208301866113c1565b61157b60408301856114f7565b61158860608301846114f7565b95945050505050565b60006040820190506115a660008301856113c1565b6115b360208301846114f7565b9392505050565b600060208201905081810360008301526115d3816113df565b9050919050565b600060208201905081810360008301526115f381611402565b9050919050565b6000602082019050818103600083015261161381611425565b9050919050565b6000602082019050818103600083015261163381611448565b9050919050565b600060208201905081810360008301526116538161146b565b9050919050565b600060208201905081810360008301526116738161148e565b9050919050565b60006020820190508181036000830152611693816114b1565b9050919050565b600060208201905081810360008301526116b3816114d4565b9050919050565b60006020820190506116cf6000830184611506565b92915050565b60006020820190506116ea60008301846114f7565b92915050565b60006040820190506117056000830185611506565b6117126020830184611506565b9392505050565b60006101208201905061172f600083018c6114f7565b61173c602083018b6114f7565b611749604083018a6114f7565b61175660608301896114f7565b61176360808301886114f7565b61177060a08301876114f7565b61177d60c08301866114f7565b61178a60e08301856113c1565b6117986101008301846113d0565b9a9950505050505050505050565b600082825260208201905092915050565b60006117c28261190a565b91506117cd8361190a565b9250827fffffffffffffffffffffffffffffffffffffffffffffffffffffffffffffffff038211156118025761180161198e565b5b828201905092915050565b60006118188261190a565b91506118238361190a565b925082611833576118326119bd565b5b828204905092915050565b60006118498261190a565b91506118548361190a565b9250817fffffffffffffffffffffffffffffffffffffffffffffffffffffffffffffffff048311821515161561188d5761188c61198e565b5b828202905092915050565b60006118a38261190a565b91506118ae8361190a565b9250828210156118c1576118c061198e565b5b828203905092915050565b60006118d7826118ea565b9050919050565b60008115159050919050565b600073ffffffffffffffffffffffffffffffffffffffff82169050919050565b6000819050919050565b600061191f8261190a565b91507fffffffffffffffffffffffffffffffffffffffffffffffffffffffffffffffff8214156119525761195161198e565b5b600182019050919050565b60006119688261190a565b91506119738361190a565b925082611983576119826119bd565b5b828206905092915050565b7f4e487b7100000000000000000000000000000000000000000000000000000000600052601160045260246000fd5b7f4e487b7100000000000000000000000000000000000000000000000000000000600052601260045260246000fd5b7f5265717569726520616d6f756e7420666f206c656e64696e67206f666665722060008201527f6d6f7265207468616e2030000000000000000000000000000000000000000000602082015250565b7f526174696e67206c6f616e206d6f7265207468616e2030000000000000000000600082015250565b7f616d6f756e7420746f207265706179206e6f7420636f72726563746c79000000600082015250565b7f454854206d75737420626520657175616c204554482072657175697265000000600082015250565b7f4475726174696f6e2064617465206d6f7265207468616e203000000000000000600082015250565b7f4f6e6c7920626f72726f7765722063616e207265706179000000000000000000600082015250565b7f4d75737420626520726561647920666f72206c656e64696e6700000000000000600082015250565b7f4461696c7920696e746572657374206d6f7265207468616e2030000000000000600082015250565b611b63816118cc565b8114611b6e57600080fd5b50565b611b7a816118de565b8114611b8557600080fd5b50565b611b918161190a565b8114611b9c57600080fd5b5056fea2646970667358221220338d4293f8c26f2ae90950e4bcde28961470a6f39321adb14daa7932dda7562464736f6c63430008010033",
  "immutableReferences": {},
  "source": "// SPDX-License-Identifier: MIT\npragma solidity >= 0.7.0 <= 0.8.1;\n\nimport './interfaces/IXCoinInterface.sol';\nimport \"./libs/ConvertLib.sol\";\n\ncontract LoanContract {\n\n    struct LendingOffer {\n        uint lendingOfferId;\n        uint amountXCoin;\n        uint ethRequire;\n        uint ratingLoanPerETH;\n        uint durationSecond;\n        uint durationDate;\n        uint dailyInterest;\n        address addressLender;\n        bool isLending;\n    }\n\n    struct Borrower {\n        address addressBorrower;\n        uint timestampStart;\n    }\n\n    uint lendingOfferIdIndex = 0;\n    uint public constant ratingFee = 5;\n    uint public constant secondPerDay = 86400;\n\n\n    mapping(uint => LendingOffer) public mappingLendingOffer;\n\n    mapping(uint => Borrower) public mappingLending;\n\n    address XCoinContractAddress;\n\n    function setXCoinContractAddress(address _XCoinContractAddress) public{\n        XCoinContractAddress = _XCoinContractAddress;\n\n    }\n\n\n    event CreateLendingOfferSuccess(uint lendingId);\n    event BorrowingSuccess(uint timestamp);\n\n    event RepaySuccess(uint timestamp);\n\n\n    function createLendingOffer(address addressLender,\n        uint amountLending,\n        uint ratingLoan,\n        uint durationDates,\n        uint dailyInterest) public returns (uint)\n    {\n        require(amountLending > 0, \"Require amount fo lending offer more than 0\");\n        require(ratingLoan > 0, 'Rating loan more than 0');\n        require(durationDates > 0, \"Duration date more than 0\");\n        require(dailyInterest > 0, \"Daily interest more than 0\");\n\n        lendingOfferIdIndex++;\n\n        uint _ethRequire = ConvertLib.convertToETHRequireLending(amountLending, ratingLoan);\n        mappingLendingOffer[lendingOfferIdIndex] =\n        LendingOffer({\n        lendingOfferId : lendingOfferIdIndex,\n        amountXCoin : amountLending,\n        ethRequire : _ethRequire,\n        ratingLoanPerETH : ratingLoan,\n        durationSecond : durationDates * secondPerDay,\n        durationDate : durationDates,\n        dailyInterest : dailyInterest,\n        addressLender : addressLender,\n        isLending : false\n        });\n        emit CreateLendingOfferSuccess(lendingOfferIdIndex);\n        return lendingOfferIdIndex;\n    }\n\n    function borrowingXCoin(uint _lendingId) public payable {\n\n        require(ConvertLib.convertETHToWei(msg.value) == mappingLendingOffer[_lendingId].ethRequire, 'EHT must be equal ETH require');\n        require(mappingLendingOffer[_lendingId].isLending == false, 'Must be ready for lending');\n\n        mappingLendingOffer[_lendingId].isLending = true;\n        mappingLending[_lendingId] = Borrower({\n        addressBorrower : msg.sender,\n        timestampStart : block.timestamp\n        });\n\n        payable(XCoinContractAddress).transfer(ConvertLib.convertWeiToETH(mappingLendingOffer[_lendingId].ethRequire));\n        IXCoinInterface(XCoinContractAddress).transferCoinForBorrower(msg.sender,\n            mappingLendingOffer[_lendingId].addressLender, mappingLendingOffer[_lendingId].amountXCoin);\n\n        emit BorrowingSuccess(block.timestamp);\n\n    }\n\n\n    function repayBorrowingXCoin(uint _lendingIdToRepay, uint _amountRepay) public {\n        require(msg.sender == mappingLending[_lendingIdToRepay].addressBorrower, 'Only borrower can repay');\n        require(ConvertLib.convertXCoinToWei(_amountRepay) == getAmountRepay(_lendingIdToRepay), 'amount to repay not correctly');\n\n        IXCoinInterface(XCoinContractAddress).transferRepayForLender(msg.sender,\n            mappingLendingOffer[_lendingIdToRepay].addressLender, ConvertLib.convertXCoinToWei(_amountRepay),\n            ConvertLib.convertWeiToETH(mappingLendingOffer[_lendingIdToRepay].ethRequire));\n\n        mappingLendingOffer[_lendingIdToRepay].isLending = false;\n        delete mappingLending[_lendingIdToRepay];\n\n        emit RepaySuccess(block.timestamp);\n\n    }\n\n    function getAmountRepay(uint _lendingId) private view returns (uint) {\n\n        bool  isPayFee = false;\n        uint payFee;\n        uint XCoinTotalPay;\n        uint currentTimeStamp = block.timestamp;\n\n        if ( currentTimeStamp - mappingLending[_lendingId].timestampStart < mappingLendingOffer[_lendingId].durationSecond){\n            isPayFee = true;\n            payFee = ConvertLib.convertXCoinToWei((ratingFee*mappingLendingOffer[_lendingId].amountXCoin)/100);\n        }\n\n        if ( isPayFee == false) {\n            XCoinTotalPay = mappingLendingOffer[_lendingId].amountXCoin + getProfitLending(_lendingId, isPayFee);\n\n        }else {\n            XCoinTotalPay = mappingLendingOffer[_lendingId].amountXCoin + payFee + getProfitLending(_lendingId, isPayFee);\n        }\n        return  ConvertLib.convertXCoinToWei(XCoinTotalPay);\n    }\n\n    function getProfitLending(uint _IDLending, bool isPayFee) public view returns (uint){\n\n        uint profitXCoin;\n        uint _currentTimeStamp = block.timestamp;\n        uint profitPerDay = (mappingLendingOffer[_IDLending].dailyInterest * mappingLendingOffer[_IDLending].amountXCoin) / 100;\n        if ( isPayFee == false){\n\n            profitXCoin= profitPerDay  * mappingLendingOffer[_IDLending].durationDate;\n        }else {\n            uint timeBorrowByDay;\n            uint timeBorrowBySecond = _currentTimeStamp - mappingLending[_IDLending].timestampStart;\n            uint modTimeSecond = timeBorrowBySecond  % secondPerDay;\n            if ( modTimeSecond == 0) {\n                timeBorrowByDay = (timeBorrowBySecond - modTimeSecond) / secondPerDay;\n\n            }else if ( modTimeSecond > 0) {\n                timeBorrowByDay = (timeBorrowBySecond - modTimeSecond) / secondPerDay + 1;\n\n            }\n            profitXCoin = profitPerDay*timeBorrowByDay;\n        }\n\n        return profitXCoin;\n\n    }\n\n\n}\n",
  "sourcePath": "/Users/ndtrung/work/block_chain/XCoin/contracts/LoanContract.sol",
  "compiler": {
    "name": "solc",
    "version": "0.8.1+commit.df193b15.Emscripten.clang"
  },
  "schemaVersion": "3.3.4",
  "updatedAt": "2021-04-11T08:46:38.796Z",
  "devdoc": {
    "kind": "dev",
    "methods": {},
    "version": 1
  },
  "userdoc": {
    "kind": "user",
    "methods": {},
    "version": 1
  }
}