{
  "contractName": "XCoin",
  "abi": [
    {
      "inputs": [],
      "stateMutability": "nonpayable",
      "type": "constructor"
    },
    {
      "anonymous": false,
      "inputs": [
        {
          "indexed": true,
          "internalType": "address",
          "name": "owner",
          "type": "address"
        },
        {
          "indexed": true,
          "internalType": "address",
          "name": "spender",
          "type": "address"
        },
        {
          "indexed": false,
          "internalType": "uint256",
          "name": "value",
          "type": "uint256"
        }
      ],
      "name": "Approval",
      "type": "event"
    },
    {
      "anonymous": false,
      "inputs": [
        {
          "indexed": true,
          "internalType": "address",
          "name": "from",
          "type": "address"
        },
        {
          "indexed": true,
          "internalType": "address",
          "name": "to",
          "type": "address"
        },
        {
          "indexed": false,
          "internalType": "uint256",
          "name": "value",
          "type": "uint256"
        }
      ],
      "name": "Transfer",
      "type": "event"
    },
    {
      "anonymous": false,
      "inputs": [],
      "name": "TransferForBorrowerSuccess",
      "type": "event"
    },
    {
      "anonymous": false,
      "inputs": [],
      "name": "TransferRepayForLenderSuccess",
      "type": "event"
    },
    {
      "inputs": [
        {
          "internalType": "address",
          "name": "owner",
          "type": "address"
        },
        {
          "internalType": "address",
          "name": "spender",
          "type": "address"
        }
      ],
      "name": "allowance",
      "outputs": [
        {
          "internalType": "uint256",
          "name": "",
          "type": "uint256"
        }
      ],
      "stateMutability": "view",
      "type": "function"
    },
    {
      "inputs": [
        {
          "internalType": "address",
          "name": "spender",
          "type": "address"
        },
        {
          "internalType": "uint256",
          "name": "amount",
          "type": "uint256"
        }
      ],
      "name": "approve",
      "outputs": [
        {
          "internalType": "bool",
          "name": "",
          "type": "bool"
        }
      ],
      "stateMutability": "nonpayable",
      "type": "function"
    },
    {
      "inputs": [
        {
          "internalType": "address",
          "name": "account",
          "type": "address"
        }
      ],
      "name": "balanceOf",
      "outputs": [
        {
          "internalType": "uint256",
          "name": "",
          "type": "uint256"
        }
      ],
      "stateMutability": "view",
      "type": "function"
    },
    {
      "inputs": [],
      "name": "decimals",
      "outputs": [
        {
          "internalType": "uint8",
          "name": "",
          "type": "uint8"
        }
      ],
      "stateMutability": "view",
      "type": "function"
    },
    {
      "inputs": [
        {
          "internalType": "address",
          "name": "spender",
          "type": "address"
        },
        {
          "internalType": "uint256",
          "name": "subtractedValue",
          "type": "uint256"
        }
      ],
      "name": "decreaseAllowance",
      "outputs": [
        {
          "internalType": "bool",
          "name": "",
          "type": "bool"
        }
      ],
      "stateMutability": "nonpayable",
      "type": "function"
    },
    {
      "inputs": [
        {
          "internalType": "address",
          "name": "spender",
          "type": "address"
        },
        {
          "internalType": "uint256",
          "name": "addedValue",
          "type": "uint256"
        }
      ],
      "name": "increaseAllowance",
      "outputs": [
        {
          "internalType": "bool",
          "name": "",
          "type": "bool"
        }
      ],
      "stateMutability": "nonpayable",
      "type": "function"
    },
    {
      "inputs": [],
      "name": "loanContractAddress",
      "outputs": [
        {
          "internalType": "address",
          "name": "",
          "type": "address"
        }
      ],
      "stateMutability": "view",
      "type": "function"
    },
    {
      "inputs": [],
      "name": "name",
      "outputs": [
        {
          "internalType": "string",
          "name": "",
          "type": "string"
        }
      ],
      "stateMutability": "view",
      "type": "function"
    },
    {
      "inputs": [],
      "name": "owner",
      "outputs": [
        {
          "internalType": "address",
          "name": "",
          "type": "address"
        }
      ],
      "stateMutability": "view",
      "type": "function"
    },
    {
      "inputs": [],
      "name": "symbol",
      "outputs": [
        {
          "internalType": "string",
          "name": "",
          "type": "string"
        }
      ],
      "stateMutability": "view",
      "type": "function"
    },
    {
      "inputs": [],
      "name": "totalSupply",
      "outputs": [
        {
          "internalType": "uint256",
          "name": "",
          "type": "uint256"
        }
      ],
      "stateMutability": "view",
      "type": "function"
    },
    {
      "inputs": [
        {
          "internalType": "address",
          "name": "recipient",
          "type": "address"
        },
        {
          "internalType": "uint256",
          "name": "amount",
          "type": "uint256"
        }
      ],
      "name": "transfer",
      "outputs": [
        {
          "internalType": "bool",
          "name": "",
          "type": "bool"
        }
      ],
      "stateMutability": "nonpayable",
      "type": "function"
    },
    {
      "inputs": [
        {
          "internalType": "address",
          "name": "sender",
          "type": "address"
        },
        {
          "internalType": "address",
          "name": "recipient",
          "type": "address"
        },
        {
          "internalType": "uint256",
          "name": "amount",
          "type": "uint256"
        }
      ],
      "name": "transferFrom",
      "outputs": [
        {
          "internalType": "bool",
          "name": "",
          "type": "bool"
        }
      ],
      "stateMutability": "nonpayable",
      "type": "function"
    },
    {
      "inputs": [
        {
          "internalType": "uint256",
          "name": "_amount",
          "type": "uint256"
        }
      ],
      "name": "mint",
      "outputs": [],
      "stateMutability": "nonpayable",
      "type": "function"
    },
    {
      "inputs": [
        {
          "internalType": "address",
          "name": "_receiver",
          "type": "address"
        },
        {
          "internalType": "uint256",
          "name": "_amountSend",
          "type": "uint256"
        }
      ],
      "name": "sendXCoin",
      "outputs": [],
      "stateMutability": "nonpayable",
      "type": "function"
    },
    {
      "inputs": [
        {
          "internalType": "address",
          "name": "_address",
          "type": "address"
        }
      ],
      "name": "setLoanContractAddress",
      "outputs": [],
      "stateMutability": "nonpayable",
      "type": "function"
    },
    {
      "inputs": [
        {
          "internalType": "address",
          "name": "_borrowerAddress",
          "type": "address"
        },
        {
          "internalType": "address",
          "name": "_lenderAddress",
          "type": "address"
        },
        {
          "internalType": "uint256",
          "name": "_amount",
          "type": "uint256"
        }
      ],
      "name": "transferCoinForBorrower",
      "outputs": [],
      "stateMutability": "nonpayable",
      "type": "function"
    },
    {
      "inputs": [
        {
          "internalType": "address",
          "name": "_borrowerAddress",
          "type": "address"
        },
        {
          "internalType": "address",
          "name": "_lenderAddress",
          "type": "address"
        },
        {
          "internalType": "uint256",
          "name": "_amountXCoin",
          "type": "uint256"
        },
        {
          "internalType": "uint256",
          "name": "_amountETH",
          "type": "uint256"
        }
      ],
      "name": "transferRepayForLender",
      "outputs": [],
      "stateMutability": "nonpayable",
      "type": "function"
    }
  ],
  "bytecode": "0x6080604052600a6007553480156200001657600080fd5b506040518060400160405280600681526020017f5820436f696e00000000000000000000000000000000000000000000000000008152506040518060400160405280600481526020017f584358430000000000000000000000000000000000000000000000000000000081525081600390805190602001906200009b929190620000fe565b508060049080519060200190620000b4929190620000fe565b50505033600560006101000a81548173ffffffffffffffffffffffffffffffffffffffff021916908373ffffffffffffffffffffffffffffffffffffffff16021790555062000213565b8280546200010c90620001ae565b90600052602060002090601f0160209004810192826200013057600085556200017c565b82601f106200014b57805160ff19168380011785556200017c565b828001600101855582156200017c579182015b828111156200017b5782518255916020019190600101906200015e565b5b5090506200018b91906200018f565b5090565b5b80821115620001aa57600081600090555060010162000190565b5090565b60006002820490506001821680620001c757607f821691505b60208210811415620001de57620001dd620001e4565b5b50919050565b7f4e487b7100000000000000000000000000000000000000000000000000000000600052602260045260246000fd5b611c8f80620002236000396000f3fe608060405234801561001057600080fd5b50600436106101165760003560e01c806370a08231116100a2578063a457c2d711610071578063a457c2d7146102e3578063a9059cbb14610313578063b2ba07db14610343578063dd62ed3e1461035f578063f527a66d1461038f57610116565b806370a082311461025b5780638da5cb5b1461028b57806395d89b41146102a9578063a0712d68146102c757610116565b806318160ddd116100e957806318160ddd146101a157806323b872dd146101bf578063313ce567146101ef578063395093511461020d5780634fb545641461023d57610116565b806306fdde031461011b578063095ea7b3146101395780630e28422f1461016957806312bc6abe14610185575b600080fd5b6101236103ab565b6040516101309190611605565b60405180910390f35b610153600480360381019061014e919061135f565b61043d565b60405161016091906115ea565b60405180910390f35b610183600480360381019061017e919061135f565b61045b565b005b61019f600480360381019061019a91906112fc565b6104f0565b005b6101a96105d8565b6040516101b69190611782565b60405180910390f35b6101d960048036038101906101d491906112ad565b6105e2565b6040516101e691906115ea565b60405180910390f35b6101f76106e3565b604051610204919061179d565b60405180910390f35b6102276004803603810190610222919061135f565b6106ec565b60405161023491906115ea565b60405180910390f35b610245610798565b60405161025291906115cf565b60405180910390f35b61027560048036038101906102709190611248565b6107be565b6040516102829190611782565b60405180910390f35b610293610806565b6040516102a091906115cf565b60405180910390f35b6102b161082c565b6040516102be9190611605565b60405180910390f35b6102e160048036038101906102dc919061139b565b6108be565b005b6102fd60048036038101906102f8919061135f565b6109e1565b60405161030a91906115ea565b60405180910390f35b61032d6004803603810190610328919061135f565b610ad5565b60405161033a91906115ea565b60405180910390f35b61035d60048036038101906103589190611248565b610af3565b005b61037960048036038101906103749190611271565b610b37565b6040516103869190611782565b60405180910390f35b6103a960048036038101906103a491906112ad565b610bbe565b005b6060600380546103ba906118e6565b80601f01602080910402602001604051908101604052809291908181526020018280546103e6906118e6565b80156104335780601f1061040857610100808354040283529160200191610433565b820191906000526020600020905b81548152906001019060200180831161041657829003601f168201915b5050505050905090565b600061045161044a610c5e565b8484610c66565b6001905092915050565b6104ec338373__ConvertLib____________________________63d85ac8ac856040518263ffffffff1660e01b81526004016104979190611767565b60206040518083038186803b1580156104af57600080fd5b505af41580156104c3573d6000803e3d6000fd5b505050506040513d601f19601f820116820180604052508101906104e791906113c4565b610e31565b5050565b3373ffffffffffffffffffffffffffffffffffffffff16600660009054906101000a900473ffffffffffffffffffffffffffffffffffffffff1673ffffffffffffffffffffffffffffffffffffffff1614610580576040517f08c379a000000000000000000000000000000000000000000000000000000000815260040161057790611707565b60405180910390fd5b61058b848484610e31565b8373ffffffffffffffffffffffffffffffffffffffff166108fc829081150290604051600060405180830381858888f193505050501580156105d1573d6000803e3d6000fd5b5050505050565b6000600254905090565b60006105ef848484610e31565b6000600160008673ffffffffffffffffffffffffffffffffffffffff1673ffffffffffffffffffffffffffffffffffffffff168152602001908152602001600020600061063a610c5e565b73ffffffffffffffffffffffffffffffffffffffff1673ffffffffffffffffffffffffffffffffffffffff168152602001908152602001600020549050828110156106ba576040517f08c379a00000000000000000000000000000000000000000000000000000000081526004016106b1906116a7565b60405180910390fd5b6106d7856106c6610c5e565b85846106d2919061182a565b610c66565b60019150509392505050565b60006012905090565b600061078e6106f9610c5e565b848460016000610707610c5e565b73ffffffffffffffffffffffffffffffffffffffff1673ffffffffffffffffffffffffffffffffffffffff16815260200190815260200160002060008873ffffffffffffffffffffffffffffffffffffffff1673ffffffffffffffffffffffffffffffffffffffff1681526020019081526020016000205461078991906117d4565b610c66565b6001905092915050565b600660009054906101000a900473ffffffffffffffffffffffffffffffffffffffff1681565b60008060008373ffffffffffffffffffffffffffffffffffffffff1673ffffffffffffffffffffffffffffffffffffffff168152602001908152602001600020549050919050565b600560009054906101000a900473ffffffffffffffffffffffffffffffffffffffff1681565b60606004805461083b906118e6565b80601f0160208091040260200160405190810160405280929190818152602001828054610867906118e6565b80156108b45780601f10610889576101008083540402835291602001916108b4565b820191906000526020600020905b81548152906001019060200180831161089757829003601f168201915b5050505050905090565b3373ffffffffffffffffffffffffffffffffffffffff16600560009054906101000a900473ffffffffffffffffffffffffffffffffffffffff1673ffffffffffffffffffffffffffffffffffffffff161461094e576040517f08c379a000000000000000000000000000000000000000000000000000000000815260040161094590611647565b60405180910390fd5b6109de3373__ConvertLib____________________________63d85ac8ac846040518263ffffffff1660e01b81526004016109899190611767565b60206040518083038186803b1580156109a157600080fd5b505af41580156109b5573d6000803e3d6000fd5b505050506040513d601f19601f820116820180604052508101906109d991906113c4565b6110b0565b50565b600080600160006109f0610c5e565b73ffffffffffffffffffffffffffffffffffffffff1673ffffffffffffffffffffffffffffffffffffffff16815260200190815260200160002060008573ffffffffffffffffffffffffffffffffffffffff1673ffffffffffffffffffffffffffffffffffffffff16815260200190815260200160002054905082811015610aad576040517f08c379a0000000000000000000000000000000000000000000000000000000008152600401610aa490611727565b60405180910390fd5b610aca610ab8610c5e565b858584610ac5919061182a565b610c66565b600191505092915050565b6000610ae9610ae2610c5e565b8484610e31565b6001905092915050565b80600660006101000a81548173ffffffffffffffffffffffffffffffffffffffff021916908373ffffffffffffffffffffffffffffffffffffffff16021790555050565b6000600160008473ffffffffffffffffffffffffffffffffffffffff1673ffffffffffffffffffffffffffffffffffffffff16815260200190815260200160002060008373ffffffffffffffffffffffffffffffffffffffff1673ffffffffffffffffffffffffffffffffffffffff16815260200190815260200160002054905092915050565b3373ffffffffffffffffffffffffffffffffffffffff16600660009054906101000a900473ffffffffffffffffffffffffffffffffffffffff1673ffffffffffffffffffffffffffffffffffffffff1614610c4e576040517f08c379a0000000000000000000000000000000000000000000000000000000008152600401610c4590611707565b60405180910390fd5b610c59828483610e31565b505050565b600033905090565b600073ffffffffffffffffffffffffffffffffffffffff168373ffffffffffffffffffffffffffffffffffffffff161415610cd6576040517f08c379a0000000000000000000000000000000000000000000000000000000008152600401610ccd906116e7565b60405180910390fd5b600073ffffffffffffffffffffffffffffffffffffffff168273ffffffffffffffffffffffffffffffffffffffff161415610d46576040517f08c379a0000000000000000000000000000000000000000000000000000000008152600401610d3d90611667565b60405180910390fd5b80600160008573ffffffffffffffffffffffffffffffffffffffff1673ffffffffffffffffffffffffffffffffffffffff16815260200190815260200160002060008473ffffffffffffffffffffffffffffffffffffffff1673ffffffffffffffffffffffffffffffffffffffff168152602001908152602001600020819055508173ffffffffffffffffffffffffffffffffffffffff168373ffffffffffffffffffffffffffffffffffffffff167f8c5be1e5ebec7d5bd14f71427d1e84f3dd0314c0f7b2291e5b200ac8c7c3b92583604051610e249190611782565b60405180910390a3505050565b600073ffffffffffffffffffffffffffffffffffffffff168373ffffffffffffffffffffffffffffffffffffffff161415610ea1576040517f08c379a0000000000000000000000000000000000000000000000000000000008152600401610e98906116c7565b60405180910390fd5b600073ffffffffffffffffffffffffffffffffffffffff168273ffffffffffffffffffffffffffffffffffffffff161415610f11576040517f08c379a0000000000000000000000000000000000000000000000000000000008152600401610f0890611627565b60405180910390fd5b610f1c838383611204565b60008060008573ffffffffffffffffffffffffffffffffffffffff1673ffffffffffffffffffffffffffffffffffffffff16815260200190815260200160002054905081811015610fa2576040517f08c379a0000000000000000000000000000000000000000000000000000000008152600401610f9990611687565b60405180910390fd5b8181610fae919061182a565b6000808673ffffffffffffffffffffffffffffffffffffffff1673ffffffffffffffffffffffffffffffffffffffff16815260200190815260200160002081905550816000808573ffffffffffffffffffffffffffffffffffffffff1673ffffffffffffffffffffffffffffffffffffffff168152602001908152602001600020600082825461103e91906117d4565b925050819055508273ffffffffffffffffffffffffffffffffffffffff168473ffffffffffffffffffffffffffffffffffffffff167fddf252ad1be2c89b69c2b068fc378daa952ba7f163c4a11628f55a4df523b3ef846040516110a29190611782565b60405180910390a350505050565b600073ffffffffffffffffffffffffffffffffffffffff168273ffffffffffffffffffffffffffffffffffffffff161415611120576040517f08c379a000000000000000000000000000000000000000000000000000000000815260040161111790611747565b60405180910390fd5b61112c60008383611204565b806002600082825461113e91906117d4565b92505081905550806000808473ffffffffffffffffffffffffffffffffffffffff1673ffffffffffffffffffffffffffffffffffffffff168152602001908152602001600020600082825461119391906117d4565b925050819055508173ffffffffffffffffffffffffffffffffffffffff16600073ffffffffffffffffffffffffffffffffffffffff167fddf252ad1be2c89b69c2b068fc378daa952ba7f163c4a11628f55a4df523b3ef836040516111f89190611782565b60405180910390a35050565b505050565b60008135905061121881611c2b565b92915050565b60008135905061122d81611c42565b92915050565b60008151905061124281611c42565b92915050565b60006020828403121561125a57600080fd5b600061126884828501611209565b91505092915050565b6000806040838503121561128457600080fd5b600061129285828601611209565b92505060206112a385828601611209565b9150509250929050565b6000806000606084860312156112c257600080fd5b60006112d086828701611209565b93505060206112e186828701611209565b92505060406112f28682870161121e565b9150509250925092565b6000806000806080858703121561131257600080fd5b600061132087828801611209565b945050602061133187828801611209565b93505060406113428782880161121e565b92505060606113538782880161121e565b91505092959194509250565b6000806040838503121561137257600080fd5b600061138085828601611209565b92505060206113918582860161121e565b9150509250929050565b6000602082840312156113ad57600080fd5b60006113bb8482850161121e565b91505092915050565b6000602082840312156113d657600080fd5b60006113e484828501611233565b91505092915050565b6113f68161185e565b82525050565b61140581611870565b82525050565b6000611416826117b8565b61142081856117c3565b93506114308185602086016118b3565b61143981611976565b840191505092915050565b60006114516023836117c3565b915061145c82611987565b604082019050919050565b60006114746013836117c3565b915061147f826119d6565b602082019050919050565b60006114976022836117c3565b91506114a2826119ff565b604082019050919050565b60006114ba6026836117c3565b91506114c582611a4e565b604082019050919050565b60006114dd6028836117c3565b91506114e882611a9d565b604082019050919050565b60006115006025836117c3565b915061150b82611aec565b604082019050919050565b60006115236024836117c3565b915061152e82611b3b565b604082019050919050565b6000611546601b836117c3565b915061155182611b8a565b602082019050919050565b60006115696025836117c3565b915061157482611bb3565b604082019050919050565b600061158c601f836117c3565b915061159782611c02565b602082019050919050565b6115ab8161189c565b82525050565b6115ba8161189c565b82525050565b6115c9816118a6565b82525050565b60006020820190506115e460008301846113ed565b92915050565b60006020820190506115ff60008301846113fc565b92915050565b6000602082019050818103600083015261161f818461140b565b905092915050565b6000602082019050818103600083015261164081611444565b9050919050565b6000602082019050818103600083015261166081611467565b9050919050565b600060208201905081810360008301526116808161148a565b9050919050565b600060208201905081810360008301526116a0816114ad565b9050919050565b600060208201905081810360008301526116c0816114d0565b9050919050565b600060208201905081810360008301526116e0816114f3565b9050919050565b6000602082019050818103600083015261170081611516565b9050919050565b6000602082019050818103600083015261172081611539565b9050919050565b600060208201905081810360008301526117408161155c565b9050919050565b600060208201905081810360008301526117608161157f565b9050919050565b600060208201905061177c60008301846115b1565b92915050565b600060208201905061179760008301846115a2565b92915050565b60006020820190506117b260008301846115c0565b92915050565b600081519050919050565b600082825260208201905092915050565b60006117df8261189c565b91506117ea8361189c565b9250827fffffffffffffffffffffffffffffffffffffffffffffffffffffffffffffffff0382111561181f5761181e611918565b5b828201905092915050565b60006118358261189c565b91506118408361189c565b92508282101561185357611852611918565b5b828203905092915050565b60006118698261187c565b9050919050565b60008115159050919050565b600073ffffffffffffffffffffffffffffffffffffffff82169050919050565b6000819050919050565b600060ff82169050919050565b60005b838110156118d15780820151818401526020810190506118b6565b838111156118e0576000848401525b50505050565b600060028204905060018216806118fe57607f821691505b6020821081141561191257611911611947565b5b50919050565b7f4e487b7100000000000000000000000000000000000000000000000000000000600052601160045260246000fd5b7f4e487b7100000000000000000000000000000000000000000000000000000000600052602260045260246000fd5b6000601f19601f8301169050919050565b7f45524332303a207472616e7366657220746f20746865207a65726f206164647260008201527f6573730000000000000000000000000000000000000000000000000000000000602082015250565b7f4f6e6c79206f776e65722063616e2063616c6c00000000000000000000000000600082015250565b7f45524332303a20617070726f766520746f20746865207a65726f20616464726560008201527f7373000000000000000000000000000000000000000000000000000000000000602082015250565b7f45524332303a207472616e7366657220616d6f756e742065786365656473206260008201527f616c616e63650000000000000000000000000000000000000000000000000000602082015250565b7f45524332303a207472616e7366657220616d6f756e742065786365656473206160008201527f6c6c6f77616e6365000000000000000000000000000000000000000000000000602082015250565b7f45524332303a207472616e736665722066726f6d20746865207a65726f20616460008201527f6472657373000000000000000000000000000000000000000000000000000000602082015250565b7f45524332303a20617070726f76652066726f6d20746865207a65726f2061646460008201527f7265737300000000000000000000000000000000000000000000000000000000602082015250565b7f4f6e6c79206c6f616e20636f6e74726163742063616e2063616c6c0000000000600082015250565b7f45524332303a2064656372656173656420616c6c6f77616e63652062656c6f7760008201527f207a65726f000000000000000000000000000000000000000000000000000000602082015250565b7f45524332303a206d696e7420746f20746865207a65726f206164647265737300600082015250565b611c348161185e565b8114611c3f57600080fd5b50565b611c4b8161189c565b8114611c5657600080fd5b5056fea2646970667358221220ae5e881257599fc9862d180a72a4892b22ae9265d6858ce3291b744ccefb6e9f64736f6c63430008010033",
  "immutableReferences": {},
  "source": "// SPDX-License-Identifier: MIT\npragma solidity >= 0.7.0 <= 0.8.1;\n\n//import 'https://github.com/OpenZeppelin/openzeppelin-contracts/blob/master/contracts/token/ERC20/ERC20.sol';\nimport \"openzeppelin-solidity/contracts/token/ERC20/ERC20.sol\";\n//import 'https://github.com/OpenZeppelin/openzeppelin-contracts/blob/master/contracts/access/Ownable.sol';\nimport \"./libs/ConvertLib.sol\";\n\ncontract XCoin is ERC20 {\n\n    address  public owner;\n    address  public loanContractAddress;\n    uint rateValue = 10;\n\n    event TransferForBorrowerSuccess();\n    event TransferRepayForLenderSuccess();\n\n    modifier onlyOwner(){\n        require(owner == msg.sender, 'Only owner can call');\n        _;\n    }\n\n    modifier onlyLoanContract(){\n        require(loanContractAddress == msg.sender, 'Only loan contract can call');\n        _;\n    }\n\n    // Constructor for XCoin\n    constructor() ERC20('X Coin', 'XCXC') {\n        owner = msg.sender;\n    }\n\n    // Mint XCoin for only owner\n    function mint(uint _amount) public onlyOwner {\n        _mint(msg.sender, ConvertLib.convertXCoinToWei(_amount));\n    }\n\n\n    // send coin P2P\n    function sendXCoin(address _receiver, uint _amountSend) public {\n        _transfer(msg.sender, _receiver, ConvertLib.convertXCoinToWei(_amountSend));\n    }\n\n    function setLoanContractAddress(address _address) public{\n        loanContractAddress = _address;\n    }\n\n    // lender -> borrower\n    function transferCoinForBorrower(address _borrowerAddress, address _lenderAddress, uint _amount) public\n    onlyLoanContract {\n\n        _transfer(_lenderAddress, _borrowerAddress,_amount );\n    }\n\n\n    // borrower -> lender, contract -> eth for borrower\n    function transferRepayForLender(address _borrowerAddress, address _lenderAddress, uint _amountXCoin, uint _amountETH) public\n    onlyLoanContract {\n\n        _transfer(_borrowerAddress, _lenderAddress,_amountXCoin );\n\n        payable(_borrowerAddress).transfer(_amountETH);\n//        emit TransferRepayForLenderSuccess();\n\n    }\n\n\n}\n",
  "sourcePath": "/Users/ndtrung/work/block_chain/XCoin/contracts/XCoin.sol",
  "compiler": {
    "name": "solc",
    "version": "0.8.1+commit.df193b15.Emscripten.clang"
  },
  "schemaVersion": "3.3.4",
  "updatedAt": "2021-04-11T08:46:38.800Z",
  "devdoc": {
    "kind": "dev",
    "methods": {
      "allowance(address,address)": {
        "details": "See {IERC20-allowance}."
      },
      "approve(address,uint256)": {
        "details": "See {IERC20-approve}. Requirements: - `spender` cannot be the zero address."
      },
      "balanceOf(address)": {
        "details": "See {IERC20-balanceOf}."
      },
      "decimals()": {
        "details": "Returns the number of decimals used to get its user representation. For example, if `decimals` equals `2`, a balance of `505` tokens should be displayed to a user as `5,05` (`505 / 10 ** 2`). Tokens usually opt for a value of 18, imitating the relationship between Ether and Wei. This is the value {ERC20} uses, unless this function is overloaded; NOTE: This information is only used for _display_ purposes: it in no way affects any of the arithmetic of the contract, including {IERC20-balanceOf} and {IERC20-transfer}."
      },
      "decreaseAllowance(address,uint256)": {
        "details": "Atomically decreases the allowance granted to `spender` by the caller. This is an alternative to {approve} that can be used as a mitigation for problems described in {IERC20-approve}. Emits an {Approval} event indicating the updated allowance. Requirements: - `spender` cannot be the zero address. - `spender` must have allowance for the caller of at least `subtractedValue`."
      },
      "increaseAllowance(address,uint256)": {
        "details": "Atomically increases the allowance granted to `spender` by the caller. This is an alternative to {approve} that can be used as a mitigation for problems described in {IERC20-approve}. Emits an {Approval} event indicating the updated allowance. Requirements: - `spender` cannot be the zero address."
      },
      "name()": {
        "details": "Returns the name of the token."
      },
      "symbol()": {
        "details": "Returns the symbol of the token, usually a shorter version of the name."
      },
      "totalSupply()": {
        "details": "See {IERC20-totalSupply}."
      },
      "transfer(address,uint256)": {
        "details": "See {IERC20-transfer}. Requirements: - `recipient` cannot be the zero address. - the caller must have a balance of at least `amount`."
      },
      "transferFrom(address,address,uint256)": {
        "details": "See {IERC20-transferFrom}. Emits an {Approval} event indicating the updated allowance. This is not required by the EIP. See the note at the beginning of {ERC20}. Requirements: - `sender` and `recipient` cannot be the zero address. - `sender` must have a balance of at least `amount`. - the caller must have allowance for ``sender``'s tokens of at least `amount`."
      }
    },
    "version": 1
  },
  "userdoc": {
    "kind": "user",
    "methods": {},
    "version": 1
  }
}